:100000008031132808000800803120007F08FD009F
:100010002700160803190F289E31872627007D0820
:100020002000FF000900803115288830840022302C
:1000300085006830FE000130FF00993110218031C9
:10004000E801E901EA01EB01EC01ED01EE01EF014C
:100050002100EE01EF0120308400013085002430C2
:10006000FE000030FF00993110218031A030840063
:10007000013085004230FE000030FF009931102130
:100080008031E0308400023085001030FE00003006
:10009000FF00993110218031203084000330850029
:1000A0002030FE000030FF00993110218031EF3008
:1000B000840087308500633086000130870000307F
:1000C000FF000D30993104218031F53084009830E3
:1000D0008500E2308600013087000030FF000630E6
:1000E0009931042180311C308400993085006030C2
:1000F0008600023087000030FF000C309931042167
:100100008031843084009A3085004030860003308E
:1001100087000030FF002030993104212000993100
:10012000A0296030860002308700AC3084000030A7
:1001300085000C30FF0016001A00FF0B9B282100E1
:10014000E401083064020318DB286408A200A3015C
:10015000A235A30DA235A30D2208013EA400003054
:10016000233DA5002408200786002508213D87009F
:10017000403FA600413FA700423FA800433FA900DF
:100180006408AA000130AA35FF3E031DC3282A35A2
:10019000B83E860087012608C03F2708C13F2808CF
:1001A000C23F2908C33F0130A2002208E4070830FB
:1001B0006402031CA528E40103306402031808004C
:1001C0006403FF3AA2000130A235FF3E031DE4287C
:1001D0002235183EB83E86008701403FA300413FCC
:1001E000A400423FA500433FA6006403FF3AA700D6
:1001F0000130A735FF3E031DF9282735143EB83ED0
:1002000086008701403FA800413FA900423FAA0065
:10021000433FAB0023082806E00024082906E1003C
:1002200025082A06E20026082B06E3006403FF3AAD
:10023000A2000130A235FF3E031D1A292235103ECF
:10024000B83E8600870160080105A30041316108BE
:100250000105A400413162080105A5004131630890
:100260000105A6002608E3002508E2002408E100B5
:100270002308E0006403FF3AA2000130A235FF3EEC
:10028000031D3E292235183EB83E860087016008CE
:100290000106A300413161080106A4004131620852
:1002A0000106A500413163080106A6002608E30007
:1002B0002508E2002408E1002308E0006408A20009
:1002C0000130A235FF3E031D61292235AC3E860078
:1002D0008701403FE007413FE13D423FE23D433F70
:1002E000E33D6408A200A301A235A30DA235A30D2E
:1002F0002208213EA4000030233DA5002408200749
:1003000086002508213D8700403FE007413FE13D51
:10031000423FE23D433FE33D6403FF3AA200013028
:10032000A235FF3E031D902922351C3EB83E8600B3
:100330008701403FE007413FE13D423FE23D433F0F
:10034000E33D6403FF3AA2000130A235FF3E031DE6
:10035000A5292235103EB83E86008701403F200087
:10036000D800413FD900423FDA00433FDB001A305A
:100370002100A30023082000DC009B31EC23803106
:1003800020005B082100DF0020005A082100DE0069
:10039000200059082100DD00200058082100DC0061
:1003A0006403FF3AA2000130A235FF3E031DD429A9
:1003B0002235103EB83E86008701403F2000D8001D
:1003C000413FD900423FDA00433FDB0015302100B6
:1003D000A30023082000DC009B31EC2380312000A7
:1003E0005B082100DB0020005A082100DA00200011
:1003F00059082100D900200058082100D8005C08C5
:100400005806A2005D085906A3005E085A06A4001B
:100410005F085B06A5002508DB002408DA00230836
:10042000D9002208D8006403FF3AA2000130A235A7
:10043000FF3E031D172A2235103EB83E8600870175
:10044000403F2000D800413FD900423FDA00433FFF
:10045000DB0007302100A30023082000DC009B31D3
:10046000EC23803120005B082100DF0020005A08C7
:100470002100DE00200059082100DD00200058087E
:100480002100DC005C085806A2005D085906A300A4
:100490005E085A06A4005F085B06A5002508DB007D
:1004A0002408DA002308D9002208D8005808600779
:1004B000A2005908613DA3005A08623DA4005B08F0
:1004C000633DA5006403FF3AA6000130A635FF3E58
:1004D000031D662A26351C3EB83E86008701220889
:1004E000C03F2308C13F2408C23F2508C33F64031F
:1004F000FF3AA2000130A235FF3E031D7B2A2235C0
:100500001C3EB83E86008701403FA300413FA40047
:10051000423FA500433FA6006403FF3AA700013015
:10052000A735FF3E031D902A27350C3EB83E8600B6
:100530008701403FA307413FA43D423FA53D433FC4
:10054000A63D6403FF3AA8000130A835FF3E031D15
:10055000A52A28350C3EB83E860087012308C03FF7
:100560002408C13F2508C23F2608C33F6403FF3A61
:100570000739A2000130A235FF3E031DBB2A2235F8
:10058000B83E86008701403F2000D800413FD90097
:10059000423FDA00433FDB001E302100A300230866
:1005A0002000DC009B31EC23803120005B0821001F
:1005B000E30020005A082100E20020005908210031
:1005C000E100200058082100E0006403FF3A0739E9
:1005D000A2000130A235FF3E031DEA2A2235B83EB3
:1005E00086008701403F2000D800413FD900423FAC
:1005F000DA00433FDB0013302100A3002308200072
:10060000DC009B31EC23803120005B082100DF00FF
:1006100020005A082100DE00200059082100DD00DA
:10062000200058082100DC005C086006A2005D087C
:100630006106A3005E086206A4005F086306A500C9
:100640002508DF002408DE002308DD002208DC0086
:100650006403FF3A0739A2000130A235FF3E031DB3
:100660002D2B2235B83E86008701403F2000D80060
:10067000413FD900423FDA00433FDB000A3021000E
:10068000A30023082000DC009B31EC2380312000F4
:100690005B082100E30020005A082100E20020004E
:1006A00059082100E100200058082100E0006008FE
:1006B0005C06A20061085D06A30062085E06A40055
:1006C00063085F06A5002508DF002408DE00230874
:1006D000DD002208DC006403FF3A013E0739A20076
:1006E0000130A235FF3E031D712B2235B83E860036
:1006F0008701403FA300413FA400423FA500433F84
:10070000A6006403FF3A0739A7000130A735FF3E72
:10071000031D862B2735B83E86008701403FA80081
:10072000413FA900423FAA00433FAB0023082804F1
:10073000E00024082904E10025082A04E200260834
:100740002B04E3006403FF3A023E0739A2000130A4
:10075000A235FF3E031DA82B2235B83E8600870137
:1007600060080105A300413161080105A400413181
:1007700062080105A500413163080105A6002608AD
:10078000E3002508E2002408E1002308E0006403F8
:10079000FF3A013E0739A2000130A235FF3E031D9A
:1007A000CD2B2235B83E86008701403FA300413F54
:1007B000A400423FA500433FA6006403FF3A073967
:1007C000A7000130A735FF3E031DE22B2735B83EB9
:1007D00086008701403FA800413FA900423FAA0090
:1007E000433FAB0023082805D80024082905D90079
:1007F00025082A05DA0026082B05DB0060085804C6
:10080000A20061085904A30062085A04A400630806
:100810005B04A5002508E3002408E2002308E100AA
:100820002208E0005C086007A2005D08613DA300AB
:100830005E08623DA4005F08633DA5006403FF3AC3
:10084000A6000130A635FF3E031D222C26351C3E96
:10085000B83E860087012208810741312308813D87
:1008600041312408813D41312508813D6403FF3A2F
:10087000A2000130A235FF3E031D3A2C22351C3E5A
:10088000B83E86008701403FA300413FA400423F9D
:10089000A500433FA6006403FF3AA7000130A73537
:1008A000FF3E031D4F2C2735083EBA3E860001301F
:1008B00087002308C03F2408C13F2508C23F2608FF
:1008C000C33F6403FF3AA2000130A235FF3E031D7F
:1008D000652C22350C3EB83E86008701403FA300C0
:1008E000413FA400423FA500433FA6006403FF3AF6
:1008F000A7000130A735FF3E031D7A2C2735143E93
:10090000BA3E8600013087002308C03F2408C13F5B
:100910002508C23F2608C33F0130A2002208E40791
:10092000DC28003021006102031DA02C0030600291
:10093000031DA02C00305F02031DA02CFB305E02C3
:10094000031C152D00306102031DB02C0030600225
:10095000031DB02C01305F02031DB02CF5305E0288
:100960000318152D00302200CB000030CA000030E3
:10097000C9000230C800210061082000E300210006
:1009800060082000E20021005F082000E100210053
:100990005E082000E0009B312E2384312000600897
:1009A0002100B600200061082100B7002000620885
:1009B0002100B8000030B3004830B4004030B5002A
:1009C0008C31D024843121003308C3003408C400A2
:1009D0003508C5000030C000C830C1004030C2003A
:1009E0008A316022843121004008D0004108D100C2
:1009F0004208D20093313C23843121005308220065
:100A0000CF00210052082200CE0021005108220010
:100A1000CD00210050082200CC000030D30000306F
:100A2000D2000030D1000130882D00302100610259
:100A3000031D242D00306002031D242D01305F02B0
:100A4000031D242DF5305E02031C892D0030220089
:100A5000CB000030CA000030C9000230C8002100BD
:100A600061082000E300210060082000E20021006E
:100A70005F082000E10021005E082000E0009B31BB
:100A80002E238431200060082100B6002000610878
:100A90002100B700200062082100B8000030B30038
:100AA000C830B4004030B5008C31D02484312100EE
:100AB0003308C3003408C4003508C5000030C00046
:100AC0004830C1004130C2008A31602284312100A7
:100AD0004008D0004108D1004208D20093313C23A5
:100AE0008431210053082200CF0021005208220047
:100AF000CE00210051082200CD0021005008220024
:100B0000CC000030D3000030D2000030D1000030E3
:100B1000D00022004B082100A30022004A08210037
:100B2000A200220049082100A1002200480821005B
:100B3000A00022004F082000DB0022004E08200009
:100B4000DA0022004D082000D90022004C082000C5
:100B5000D8000030DF000030DE000030DD0019304A
:100B6000DC009B318523843120005B082100A70035
:100B700020005A082100A600200059082100A500E5
:100B8000200058082100A4009E3132268431210023
:100B900023082200C700210022082200C6002100ED
:100BA00021082200C500210020082200C4000130D5
:100BB0002100E2000030E3002200500A2100E22D73
:100BC000E235E30D890BE02D6208A0006308A10067
:100BD000890D893B8909A200A30022004708210052
:100BE000A700220046082100A60022004508210097
:100BF000A500220044082100A4009E313226843141
:100C0000210021082300E301E3072100200823003D
:100C1000E201E2070330220050052100E20000302B
:100C2000220051052100E30000302200520521007E
:100C3000E4000030220053052100E5001C30E235BD
:100C4000E30DE40DE50D890B1F2E7F3022004C05CE
:100C50002100E600003022004D052100E7000030B1
:100C600022004E052100E800003022004F0521003F
:100C7000E9001530E635E70DE80DE90D890B3A2E50
:100C80001F30220048052100EA00003022004905FB
:100C90002100EB00003022004A052100EC0000306A
:100CA00022004B052100ED001030EA35EB0DEC0D74
:100CB000ED0D890B552E6A08E6046B08E7046C08F5
:100CC000E8046D08E9046608E2046708E3046808BC
:100CD000E4046908E504473062042300A6000030FC
:100CE000210063042300A7000030210064042300D6
:100CF000A8000030210065042300A9002908D500C0
:100D00002808D4002708D3002608D2000030D900D4
:100D10000030D8000030D7000030D6006308200033
:100D2000D901D907230062082000D801D807403034
:100D3000DA005130DB009B31B52320005808FF3A20
:100D4000013E2100E20062082200A6000800230004
:100D500069082100DE00DF01DE09DF09DE0A031970
:100D6000DF0A2200680821005E07E0005F08031820
:100D70005F0AE10060082300E00021006108230011
:100D8000E10061082000E101E10723006008200084
:100D9000E001E0079A31E722863120006008210057
:100DA000B600200061082100B70020006208210081
:100DB000B800220068082100DE00DF01DE09DF093B
:100DC000DE0A0319DF0A2300350821005E07E00070
:100DD0005F0803185F0AE100E035E10DE035E10D41
:100DE000E035E10D60082000E000210061082000EE
:100DF000E1009A31E7228631200060082100B0002E
:100E0000200061082100B100200062082100B2002A
:100E10009831FB20863121003008B3003108B4003E
:100E20003208B5008C31D024863121003308E2002D
:100E30003408E3003508E4006208B6006308B70030
:100E40006408B80023002D082000E101E107230019
:100E50002C082000E001E0079A31E72286312000CB
:100E600060082100A300200061082100A4002000E8
:100E700062082100A5000030A0000030A1003F3032
:100E8000A2008B311723863121002008B0002108F1
:100E9000B1002208B2009831FB20863121003008D1
:100EA000B3003108B4003208B5008C31D02486314B
:100EB00021003308D0003408D1003508D200933126
:100EC0003C238631210051082200A101A107210005
:100ED00050082200A001A007230068082200200774
:100EE0002100DE00220021080318210A2100DF0072
:100EF0005F08803AFF0080307F02031D812F4C3055
:100F00005E02031CA22F2300680822002007210094
:100F1000DE00220021080318210A2100DF005F08FB
:100F2000803AFF0081307F02031D982F00305E025F
:100F30000318A22F220020082100DE005E082300F3
:100F4000E807D82F23006808220020072100DE00D0
:100F5000220021080318210A2100DF005F08803ADF
:100F6000FF0081307F02031DB72F00305E02031C9B
:100F7000BB2FFF30D32F2300680822002007210059
:100F8000DE00220021080318210A2100DF005F088B
:100F9000803AFF0080307F02031DD02F4B305E026D
:100FA0000318D82F4B302100DE005E082300E80034
:100FB000220068082100DE005E082300B5006108F9
:100FC000AD01AD076008AC01AC070630633E86009A
:100FD000013087006808C03F2C00920008004934A7
:100FE0000034003400340034003400340034003461
:100FF00000340034403400348031032008000800FD
:101000000034AB34053439346D34343403344B3468
:1010100000346C3400346F3400346E340034643483
:101020000034693400346B340034653400342034C7
:10103000003450340034723400346F3400346A3475
:1010400000346534003463340034743400340034C4
:1010500000340034003400340034003400340034F0
:1010600000340034003400340034003400340034E0
:101070000034343403344B340034313400343634E7
:1010800000340034003400340034003400340034C0
:1010900000340034003400340034003400340034B0
:1010A00000340034003400340034003400340034A0
:1010B0000034003400340034003400340034003490
:1010C0000034003400340034003400340034003480
:1010D0000034003400340034003409340234203445
:1010E0000034013401340034C0343234093404345F
:1010F000003400340234FF34FF34FF34003407344A
:1011000005340134023440340034013407340534EA
:101110008134023440340034013412340134003458
:1011200002340034003400340834D83404340A342F
:10113000F634003400340134023400340134103405
:101140004B34313436340034003400340034EF345E
:10115000BE34AD34DE3404340334093404342000A6
:10116000E1005C080319B9286108683E8600870120
:10117000BE286108223E8600013087000108DF009A
:101180005F08E200E208031DC728003008005D0880
:10119000DF000230E0006208023E860087015F083F
:1011A000C03F6008C13F5E08DF00620A8600870119
:1011B0005F0881004030DF006208860087015F0819
:1011C00081058830DF006208860087015F0881049E
:1011D0005C080319F2280430DF006108683E8600CD
:1011E0008701F9280430DF006108223E86000130C3
:1011F00087005F0881066208080022002408860034
:101200002508870048308E01011890308E00483044
:101210008E01811890308E0048308E010119903077
:101220008E0048308E01811990308E0048308E013A
:10123000011A90308E0048308E01811A90308E0055
:1012400048308E01011B90308E0048308E01811B8A
:1012500090308E00413148308E01011890308E0060
:1012600048308E01811890308E0048308E0101196F
:1012700090308E0048308E01811990308E004830B9
:101280008E01011A90308E0048308E01811A903004
:101290008E0048308E01011B90308E0048308E0148
:1012A000811B90308E00413148308E010118903002
:1012B0008E0048308E01811890308E0048308E01AB
:1012C000011990308E0048308E01811990308E00C7
:1012D00048308E01011A90308E0048308E01811AFC
:1012E00090308E0048308E01011B90308E004830C7
:1012F0008E01811B90308E00413148308E010118E3
:1013000090308E0048308E01811890308E00483029
:101310008E01011990308E0048308E018119903075
:101320008E0048308E01011A90308E0048308E01B8
:10133000811A90308E0048308E01011B90308E0053
:1013400035088E01811B36088E004131B80B022909
:10135000080010302000E10061082200E4000230A3
:101360002000D8000030D900220064082000E100ED
:10137000E2016108DA006208DB009D31DE25893177
:1013800020005808E30063082200BF003F08200047
:10139000E100E2016108D8006208D9000030DA00FB
:1013A0004030DB009D31DE258931200059082100C5
:1013B000A101A107200058082100A001A0070230C8
:1013C0002000D8000030D900210021082000DB01D6
:1013D000DB07210020082000DA01DA079D31DE2535
:1013E0008931200059082200EE01EE07200058083C
:1013F0002200ED01ED0700302600A3000030A2001E
:101400000030A1000030A0002100A201A20A2200A9
:101410003F08210022020318572A22003F0820001B
:10142000E1000130E135FF3E031D122A6135FC3E2B
:10143000403E860003308700403FE200413FE3002A
:10144000423FE400433FE500210022082000E6007F
:101450000130E635FF3E031D292A6635FC3E203E5D
:10146000860003308700403FE207413FE33D423FB3
:10147000E43D433FE53D210022082000E700013024
:10148000E735FF3E031D402A6735203E86000330C6
:1014900087006208C03F6308C13F6408C23F650817
:1014A000C33F0130E10061082100A207072A523042
:1014B0002000E10061082200E300EB01EC010800DC
:1014C00021004308C6004408C7004508C8000310AF
:1014D000470D480DC9004908CE00CE08031D772AE4
:1014E0000030C0000030C1000030C20008004008D9
:1014F000C6004108C7004208C8000310470D480D48
:10150000C9004908CF00CF08031D8D2A0030C00054
:101510000030C1000030C20008000030CB000030B5
:10152000CC000030CD0089304F07C6004608CE02FF
:101530004308C6004408C7004508C8001030C83634
:10154000C70CC60C890B9F2A4608C9004908CF0062
:101550004008C6004108C7004208C8001030C8361D
:10156000C70CC60C890BAF2A4608C9004908CF062C
:101570008030C6004608CF05C417FF30C305FF30D2
:10158000C4050030C505C117FF30C005FF30C105D7
:101590000030C2051830C6004608CA000130CB35FD
:1015A000CC0DCD0D890BCF2A42084502031DDE2A42
:1015B00041084402031DDE2A40084302031CE72AB7
:1015C0004008C3024108C43B4208C53B4B140130EC
:1015D000C335C40DC50D890BE82A0130CA02031DAD
:1015E000CE2A4B082000D80021004C082000D9004A
:1015F00021004D082000DA0021004E08C6004608F0
:101600002000DB0021004F08C70047082000DC0055
:101610009F319F27200058082100C0002000590852
:101620002100C10020005A082100C200080021004A
:101630002008A6002108A7002208A8000310270DF3
:10164000280DA9002908AA00AA08031D2E2B003086
:10165000A0000030A1000030A20008002308A6006E
:101660002408A7002508A8000310270D280DA900AD
:101670002908AF00AF08031D442B0030A000003044
:10168000A1000030A20008002F087B3EA60026081B
:10169000AA072008A6002108A7002208A8001030E9
:1016A000A836A70CA60C890B502B2608A9002908E0
:1016B000AF002308A6002408A7002508A8001030C2
:1016C000A836A70CA60C890B602B2608A9002908B0
:1016D000AF068030A6002608AF05A117A417FF307B
:1016E000A305FF30A4050030A5050030AB00003095
:1016F000AC000030AD000730A6002608AE00201C6C
:10170000872B2308AB072408AC3D2508AD3D0130ED
:10171000A236A10CA00C890B882B0130A335A40D97
:10172000A50D890B8E2B0130AE02031D7F2B0930D6
:10173000A6002608AE00201CA32B2308AB07240814
:10174000AC3D2508AD3D0130A236A10CA00C890BA3
:10175000A42B0130AD36AC0CAB0C890BAA2B01309D
:10176000AE02031D9B2B2B082000D80021002C0863
:101770002000D90021002D082000DA0021002A08CD
:10178000A60026082000DB0021002F08A70027085C
:101790002000DC009F319F27200058082100A00076
:1017A000200059082100A10020005A082100A200B1
:1017B00008002100EE08031DED2B3D008E01920173
:1017C000163091009F3097007B3092008E19EA2BE3
:1017D0008E15E62B2100EE01EE0A6E08013A031D7C
:1017E000FD2B3D008E1AFD2B900192011214121652
:1017F00002302100B2003208EE003D001019121D27
:101800000A2CFB302100B20032083D0090059931CE
:10181000B7218B313D008E1C102C200012110800C6
:101820001018121C202C973156278B3104302100C0
:10183000B2003208EE00FE30B20032083D009005E2
:10184000101A121E2C2C9931EE218B31EF30210011
:10185000B20032083D009005101F522C121F402C80
:1018600073302100A0000030A1000030A200003041
:10187000A3000130A4000030A5009C3123248B314B
:10188000BF302100B20032083D009005220032082E
:1018900003194C2C0130B202B208031D522C9031B6
:1018A00064208B313D00901A921E592C9A31C5222A
:1018B0008B313D009018921C6F2CFF302100A0004E
:1018C0007F30A1000030A2000030A3000130A4004E
:1018D0000030A5009C3123248B313D00930104305E
:1018E00021006E020318772C2000121108003D0021
:1018F000921DCD2C2100B401C62C0F082100B2008E
:101900003208EF006F0CB200B20C320C0F39B3008A
:1019100033082200B400F7302100B20032083D0045
:10192000900521006F19982C22003408B03E9B2CA2
:1019300022003408AE3E86000130870001080139DC
:101940002100B2000130B20601083206FE3932062B
:1019500081002200B408031DB12C9131BB218B31D1
:10196000C12C72302100A0000030A100EF30A20095
:101970000030A3000030A4000030A5009C312324D7
:101980008B3101302100B2003208B4070430340238
:101990000318CD2C3D0090197D2C20001211080059
:1019A00021003308B9003408BA003508BB00031021
:1019B0003A0D3B0DBC003C08BF003608B9003708A3
:1019C000BA003808BB0003103A0D3B0DBC003C08C0
:1019D000BE003F080319F82C3E083F020318FF2CF5
:1019E0003F03FF3A3E07B90019303902031CFF2CB0
:1019F0003608B3003708B4003808B50008003E08C0
:101A0000031908003F083E0203180E2D3E03FF3A5B
:101A10003F07B90019303902031808000630B90031
:101A20003908BD00B51BBD17B81B3D17B417FF30F3
:101A3000B305FF30B4050030B505B717FF30B60564
:101A4000FF30B7050030B8053E083F0203184A2DA5
:101A50000130B635B70DB80D890B292D0130BE0206
:101A60003E083F060319452D0130BD023D080739E8
:101A70000319452D282D0130B536B40CB30C890B54
:101A80003C2D0130B9003908BF073F083E06031955
:101A90006F2D3B2D3F083E0203186F2D0130B335EB
:101AA000B40DB50D890B4F2D0130BF023E083F0626
:101AB00003196B2D0130BD023D08073903196B2D49
:101AC0004E2D0130B836B70CB60C890B622D0130A3
:101AD000B9003908BE073F083E06031D612DBD1F32
:101AE000812DFF30B306FF30B406FF30B50601305C
:101AF000B307003003180130B40700300318013079
:101B0000B5073D1F932DFF30B606FF30B706FF30F7
:101B1000B8060130B607003003180130B7070030AF
:101B200003180130B807BD013308B6073408B73DC4
:101B30003508B83DB81FAE2DFF30B606FF30B706EA
:101B4000FF30B8060130B607003003180130B70780
:101B5000003003180130B807BD01BD0A3608200067
:101B6000D800210037082000D900210038082000C3
:101B7000DA0021003F08B90039082000DB0021000D
:101B80003D08BA003A082000DC009F319F27200062
:101B900058082100B300200059082100B40020009B
:101BA0005A082100B50008002200DA00CA2E0730CA
:101BB000660203182D2E5A08023E86000230870066
:101BC00033086607D400D501D50D07305405200031
:101BD000D8000030220055052000D9002D30DA0051
:101BE0000030DB009A3126228D3188302200D60069
:101BF0002230D70020005808220056078400200019
:101C000059082200573D85002D30FF0016001A00AC
:101C1000FF0B062E0130D4005408E6076308523A41
:101C2000031D2D2E9231B6228D312D2EB301E601EA
:101C30005230B12E5A082000DE000230DF009F3003
:101C4000E0008830E1000C302200D400540820006D
:101C5000E2009631AE268D31E22E2200B42E5A08D3
:101C6000023E8600023087001600010403197B2E15
:101C70005A08023E860002308700E23084000130BC
:101C800085000630FF0016001A00FF0B432E0030BF
:101C9000230063023E30031962020318532E3E30C4
:101CA000E2000030E300133063028930031962025E
:101CB000031C5E2E8830E2001330E300620821002E
:101CC000DE00230063082100DF00E001E101843130
:101CD00091248D31230064080319752E64082200B5
:101CE000D40054082300E9007B2E8F302200D4005A
:101CF00054082300E40022005A082000DE000230CD
:101D0000DF00E230E0000130E10006302200D400C4
:101D100054082000E2009631AE268D31E22E2200DA
:101D20005A08023E8600023087000108313A00302E
:101D300003190130D400D40E0C085406EF395406B0
:101D40008C005A08023E8600023087000108313AB2
:101D50000319AC2E4430AD2E5230D8000030D900DB
:101D60005808D4005408E3005A082000DE0002306E
:101D7000DF006330E0000130E1000D302200D400CC
:101D800054082000E2009631AE268D312200EA018F
:101D9000EF01E22E5A088600023087000108413A1E
:101DA0000319162E023A03192F2E063A03198F2E05
:101DB0000C3A03191A2E1A3A03192D2E043A031954
:101DC000D72DE22E22008C16080020004208013A8E
:101DD000031DFC2E40081F390038031DFC2E220075
:101DE000BC1720004108033A031DFA2E2200A90166
:101DF000A90AFC2E2200A90120004208031D0800A8
:101E000040081F39023A031D080044080F39003A00
:101E10000319080044080F392100A60002302602E9
:101E2000031808006E08203A031D08002200BC17A2
:101E30002000C41B2B2F44080F39223E860001309E
:101E4000870001082100A6002608AB0020004408F6
:101E50000F39B03E3A2F200044080F39683E860003
:101E6000870101082100A6002608AB0020004408D5
:101E70000F39AE3E86000130870001082100A60020
:101E80002608AA002A18492FFB30A6002608AB0511
:101E90004A2F2B152000C41B582F21002B08A60009
:101EA000200044080F39223E860001308700612F50
:101EB00021002B08A600200044080F39683E860048
:101EC000870121002608810020004108033A031DF4
:101ED000862F21002B0886008701811F7D2F20007F
:101EE000C41B762F44080F39B03E792F44080F39B0
:101EF000AE3E860001308700811484302100A600A8
:101F00002B08860087012608810408000430210080
:101F1000A6002608AB062B0886008701811FAB2F81
:101F20007F30A6002B0886008701260881052B0834
:101F30008600870101170530A0000030A1002B08A2
:101F4000A2000030A3000130A4000030A5009C31A5
:101F500023248E31B02F21002B0886008701011722
:101F600004302100A6002608AB06AA18BC2F2B08B7
:101F700086008701811FE22F2000C41BC32F440865
:101F80000F39B03EC62F44080F39AE3E86000130EF
:101F9000870081103B302100A6002B0886008701B6
:101FA000260881050530A0000030A1002B08A20002
:101FB0000030A3000130A4000030A5009C31232490
:101FC0008E31EA2F3B302100A6002B0886008701C6
:101FD00026088105200044080F39983E2100A600FC
:101FE000A7010E30A73D2608A8002708A900FE304B
:101FF000A600280886002908870026088105080011
:10200000080020006808860087010030011B0130AD
:10201000DD000430DB005B08E80621006E08083AAA
:10202000031D2128200042083D00960016080319D0
:102030001B2810301C2804302000DB005B08210026
:10204000EE0020006C08013A031D57284830DB00E1
:102050000030DC006808023E860087015B08C03F54
:102060005C08C13F9331C323903122003908023A02
:10207000031D432884302000DB00680886008701A8
:102080005B08810008002000DD08031D4F28C830D0
:10209000DB006808860087015B0881000800883043
:1020A000DB006808860087015B08810008002300C8
:1020B000A21F6128250803196028250890315F2890
:1020C000A2132000EC0108002200B008031D080044
:1020D00001302000D80058082200B000B108031DCC
:1020E000080001302000D80058082200B10020006C
:1020F0006C08023A031D8828680A8600870181015E
:10210000C830D80068088600870158088100080098
:102110006C08013A031D08002300B20108302000BA
:10212000D8006D0A86008701580881004030D80029
:102130000030D9006D08023E860087015808C03F74
:102140005908C13F8430D8006D08860087015808BF
:1021500081002300B201B20A08302000D8006E0AC4
:1021600086008701580881004030D8000030D9002F
:102170006E08023E860087015808C03F5908C13FDB
:102180008030D8006E08860087015808810008005A
:102190003D000E122200BC1B02292300A21FDF28D3
:1021A00002302000DD005D08EC002200AD08031DB8
:1021B000DB289C31EA242200B101B001080008307C
:1021C0002000DD006E0A860087015D088100403036
:1021D000DD000030DE006E08023E860087015D08EB
:1021E000C03F5E08C13F8C30DD006E08860087016D
:1021F0005D0881008430DD006808860087015D0885
:10220000810008002000C01F1829EC01EC0A220000
:10221000AC08031D0E299C31EA2490312200B10143
:10222000B0012000EB08031D080090316420080075
:1022300002302000DD005D08EC000830DD006E0A91
:10224000860087015D0881004030DD000030DE003F
:102250006E08023E860087015D08C03F5E08C13FF0
:102260008430DD006E08860087015D088100220051
:10227000B101B0012000EB08031D0800903164207B
:102280000800203021006E02031C08003D008E185B
:10229000080022002F0803195A292F0886008701F9
:1022A000010D010D0139DB00DC015B08DF005C087A
:1022B000E0005C29DF01E00160085F04031D7A296A
:1022C000A0308D31D42591312000DC01A0302200D6
:1022D000DB005B082000DD0040302200DC005C08F1
:1022E0002000DE0001308831AF2091312200DD0076
:1022F0005D08AF0042084306031908002E080319C1
:102300008E292E0886008701010D010D0139DB00A1
:10231000DC015B08E1005C08E2009029E101E201D8
:1023200062086104031D08002000DC01DC0A0F3094
:102330002200DB005B082000D8002200430899310E
:102340003A219131203E2200DC005C082000DD00B3
:102350000F302200DD005D082000DE0001308831F2
:10236000AF202200DE005E08AE00430A0339DB0026
:102370005B08C300080028302100AE002E082200B0
:10238000B20021006F08FD39031D2C2A6F363F393A
:10239000AE000130AE35FF3E031DCA292E35203E6A
:1023A000AF002F082000ED006D082100AE002E08C0
:1023B0002000EE0004302100AE002E082000EE06C2
:1023C0006D0886008701010C890C0F390D3A031D39
:1023D000292A2100B101083031020318182A2000EF
:1023E0006D08023E86008701403F2100AE00413F5C
:1023F000AF002E0886002F0887000108B0003108C2
:10240000403E860087013008810020006D08023EB2
:10241000860087010130810741310318810A0130AC
:102420002100AE002E08B10708303102031CEF294D
:102430004030AE000030AF0020006D08023E860044
:10244000870121002E08C03F2F08C13F9D313A254A
:1024500008009B3158230800FD3021006F05AE00B5
:102460002E08043A031D08009031012008002000C6
:102470004008803A031D0800C030D80058082200E8
:10248000BC00A92A8D302200BA008830BB0012306F
:10249000BD000030BE000800043084008830850094
:1024A0002000420884070318850A003F2200BA0072
:1024B0008830BB003B082000D90022003A082000E9
:1024C000D80002305807840059080318590A8500BB
:1024D0000008DA005A082200BD003B082000D9009D
:1024E00022003A082000D800033058078400590819
:1024F0000318590A85000008DA005A082200BE00B5
:1025000008000330200042020318A32A013084008F
:1025100088308500420884070318850A003F22009E
:10252000BA008830BB003A0884003B0885000008E8
:102530002000D800D90158082200BD002000590809
:102540002200BE0008002200BC0108002200BC01DD
:10255000080020004308013A0319422A033A0319EC
:102560004C2A013A0319812AA62A080022003308BE
:102570002100E500E60165082000D800210066087A
:102580002000D9002D30DA000030DB009A312622FD
:10259000923188302100E7002230E80020005808FE
:1025A00021006707A000200059082100683DA10014
:1025B000803191209231220033082100E500E601AC
:1025C00065082000D800210066082000D9002D30C1
:1025D000DA000030DB009A31262292318830210067
:1025E000E7002230E8002000580821006707860035
:1025F000200059082100683D87000108E9006908AA
:102600002200E70033082100E500E601650820000C
:10261000D800210066082000D9002D30DA000030F3
:10262000DB009A312622923188302100E7002230E7
:10263000E80020005808210067072000DE00590844
:102640002100683D2000DF00953172252200330A09
:1026500007392100E50065082200B300EB01EC0119
:1026600026082000950057302100E500650822006B
:10267000E3000130E602080021005008D4005108B0
:10268000D5005208D6000310550D560DD700570837
:10269000DD00DD08031D552B0030D3000030D200D3
:1026A0000030D1000030D00008005008D40051089C
:1026B000D5005208D6001730D636D50CD40C890B6D
:1026C0005C2B5408D7005708D800D117FF30D0052D
:1026D000FF30D1050030D2055008D9005108DA008A
:1026E0005208DB00DC018E30DD02DD1F932B5D081C
:1026F000803A8F3E0318852B0030D3000030D20083
:102700000030D1000030D00008000130DC36DB0C96
:10271000DA0CD90C890B862B0130D4005408DD0764
:102720000319AC2B852B18305D02031CA92B00303C
:10273000D3000030D2000030D1000030D0000800BB
:102740000130D935DA0DDB0DDC0D890BA12B013001
:10275000DD02DD08031DA02B58080319BA2BD90987
:10276000DA09DB09DC09D90A0319DA0A0319DB0AD9
:102770000319DC0A5C08D3005B08D2005A08D100B8
:102780005908D000080008302000D8005808DA00A6
:10279000003022003E02083003193D020318E62BE8
:1027A0003D082000D8005808DA002200B908031DAF
:1027B000DC2BB901B90AE62B3908013A031DE62BD7
:1027C00002302000D80058082200B90003303A3EF9
:1027D00086000130870020005A08D800D901D809A6
:1027E000D909D80A0319D90A403F58072200BD0069
:1027F000413F2000593D2200BE0020005A08D80069
:10280000680A86008701580881004830D8005808B7
:102810002200B7003C1C2A2C4C2C22003A088400D1
:102820003B08850000082000D800220037088600F9
:10283000870120005808810001302200BA070030CB
:10284000BB3D01302000D80058082200B7070130F6
:102850002000DA022000DA08031908000D2C2200FB
:102860003A0884003B08850000082000D8002200B8
:1028700037088600870120005808810001302200B7
:10288000BA070030BB3D01302000D80058082200B4
:10289000B70701302000DA022000DA080319080027
:1028A0002F2C2200BC170E302100A8009930A70061
:1028B000A9012908031D6C2C270886002808870019
:1028C00081010130A7070030A83D0130A60026088D
:1028D000A907290803195C2C20302000D8000030FB
:1028E000D9000030DA000030DB002030DC0000309E
:1028F000DD009A31642294313D000E172100AA01B7
:1029000002302A020318982C2A08AE3E86000130B5
:10291000870081012A08B03E8600013087008101CE
:102920000130A6002608AA0702302A02031C842CC4
:1029300041302000D8000130D9000030DA000030EA
:10294000DB000130DC000030DD009A31642294317C
:102950003D000E1328302100A60026082000E800C4
:1029600020302100A60026082000ED006D0821007F
:10297000A60026082000EE0042082100A600260836
:102980002200C000C008031DCB2C10302100A6007F
:102990002608EE00080001302100A0000030A10050
:1029A0004030A2000130A3000130A4000030A50097
:1029B0009C31232420302100A6002608EE000800C8
:1029C0007A082000D000D101220042082000D20065
:1029D000D3015208F0005308F1000F30F20000302C
:1029E000F3009A3144229431200050087007D4003B
:1029F0005108713DD5005408023ED6000030553DC7
:102A0000D7005708803AFF0080307F02031D0A2D4F
:102A100040305602031808007608860077088700C1
:102A200001082000D0000F30D1005108F000220032
:102A30004208993128219431203E860002308700D7
:102A400020005008810022002B082000D0000F3009
:102A5000D1005108F0002200420899312821943118
:102A6000013E203E86000230870020005008810091
:102A7000FB017A087B020318692D7908D1007808D8
:102A8000D0007B085007840051080318510A8500C4
:102A90000008D200220042082000D300D4015308CD
:102AA000F0005408F1000F30F2000030F3009A31CA
:102AB0004422943170087B07023E203E860002309B
:102AC00087002000520881000130D0005008FB0729
:102AD000392D2200420A03392000D000500822007C
:102AE000C20008008B1348302000E000600822007C
:102AF000B50090302000E00060082200B600D2301F
:102B0000A4000130A50002302000E000600822008F
:102B1000B8008831FD20953120005E08213E22005A
:102B2000A400003020005F3D2200A50003302000FB
:102B3000E00060082200B8008831FD209531BE30E9
:102B40002200A4000130A50005302000E00060084C
:102B50002200B8008831FD20953120005E08013E3A
:102B60002200A400003020005F3D2200A5000830B4
:102B70002000E00060082200B8008831FD20953177
:102B8000BA302200A4000130A500B801B80A88318B
:102B9000FD20953150302200B6002000E000600892
:102BA0002200B5002030A4000330A5003F0820001B
:102BB000E00060082200B8008831FD20D8302200F3
:102BC0008E008B17FD30230052052000E000FF30FF
:102BD000230053052000E100FF30230054052000AE
:102BE000E200FF30230055052000E30063082300C6
:102BF000D500200062082300D400200061082300D3
:102C0000D300200060082300D200080020006D08D7
:102C100086008701413FDD005D08DA00DB015B08CB
:102C200023002402031D182E20005A08230023022B
:102C300003181F2E23082000DA005A08DD00033095
:102C4000A03E86000130870020005D08DA00DB012D
:102C5000DA09DB09DA0A0319DB0A403F5A072300C5
:102C6000A300413F20005B3D2300A4002000DC01C5
:102C70005D085C020318542E5C08483E86008701FC
:102C80000108DA00230020088600870120005A0886
:102C900081000130DA005A082300A007013020002B
:102CA000DA005A08DC07382E0330A03E86000130D7
:102CB0008700160001040319852E0830DA006E0A19
:102CC000860087015A0881004830DA000030DB00B6
:102CD0006E08023E860087015A08C03F5B08C13F6C
:102CE0006D0886008701011B7D2EC830DA006E0852
:102CF000860087015A08810008008830DA006E08D3
:102D0000860087015A08810008000830DA006E0A40
:102D1000860087015A0881004030DA000030DB006D
:102D20006E08023E860087015A08C03F5B08C13F1B
:102D30008430DA006E08860087015A08810023007B
:102D400025080319A62E25089631A52EA2132000CA
:102D5000EB08031D08009031642008002000620881
:102D60002100A000A101220042082100A200A3012D
:102D700022082000D800210023082000D9000F30AD
:102D8000DA000030DB009A3126229631210020083B
:102D9000200058072100A40021082000593D2100EF
:102DA000A5002408023EA6000030253DA700270804
:102DB000803AFF0080307F02031DE02E4030260263
:102DC0000318080020005E0886005F0887000108DD
:102DD0002100A0000F30A10021082000D80022000F
:102DE000420899313A219631203E86000230870010
:102DF00021002008810022002B082100A0000F30B4
:102E0000A10021082000D8002200420899313A216F
:102E10009631013E203E86000230870021002008C6
:102E200081002000E3016208630203184D2F61084E
:102E30002100A100200060082100A00020006308FC
:102E400021002007840021080318210A85000008BA
:102E5000A200220042082100A300A40123082000B0
:102E6000D800210024082000D9000F30DA000030FB
:102E7000DB009A3126229631200058086307023E73
:102E8000203E8600023087002100220881000130A8
:102E9000A00020082000E307132F2200420A033974
:102EA0002100A00020082200C20008002100121109
:102EB0003D009301900198010E302000DB00993015
:102EC000DA00DC015C08031D752F5A0886005B08D8
:102ED000870081010130DA070030DB3D0130D80086
:102EE0005808DC075C080319652F16303D00910077
:102EF0009F3097007B3092002000DD0108305D029A
:102F000003189B2F5D08D8000130D835FF3E031D04
:102F1000852F5835203E860087010030C03F0030A5
:102F2000C13FC23FC33F0130D8005808DD07083019
:102F30005D02031C822F3D000E1796010E120E1328
:102F40003D00901DB02FF7302000D80058083D00FC
:102F500090052200BC012300A201A301A401A02F1F
:102F600001302000D80058082200B00001302000B5
:102F7000D80058082200B100AC01AD012300B8010F
:102F80002000DD0102305D020318E52F5D08683E78
:102F90008600870181015D08223E8600013087009E
:102FA00081015D08AE3E86000130870081015D0829
:102FB000B03E86000130870081010130D8005808FA
:102FC000DD0702305D02031CC62F2830D8005808E8
:102FD000E80016303D00980040302000D800003056
:102FE000D9005808A2005908A3000830A100843075
:102FF000D8005808A0002200C0012100EE010800FE
:103000009F31032F9F31062F9F31402F9F31062F75
:103010009F31402F9E31EB2E9E31F32E9F31252F75
:103020009E31F92E9E31F62E9F31092F9F31152F9B
:043030009F31402F5D
:1031E60008000800F43401348F340034003400340D
:1031F6002100320831043004031908008030B20679
:103206000800FE0012001E000130FE020030FF3BE7
:103216007F087E040319003405296400800101310A
:103226000130FE020030FF3B7F087E0403190034A4
:10323600112998342F348A34423491344434373443
:103246007134CF34FB34C034B534F200F301721C50
:1032560030297008F1007108F3070310F00D031010
:10326600F20CF208031D2A2973082000080020002A
:10327600DB00DA015B1C43295808D9005908DA0734
:103286000310D80D0310DB0CDB08031D3D295A087B
:1032960008002200AA0123001E169D179E131F1266
:1032A6009F158D12270094178B1596018B172300F7
:1032B6001D16FF309900080021008C1222008C1682
:1032C6009931722199319A310A2299319A31A4227F
:1032D600993199314C2199318931A9210800210070
:1032E6000E151D08833918389D001D149E131E08DF
:1032F6008F3960389E00FC309E058F309F058F30D9
:103306002000D80058082300E900080023008C019B
:103316008D0104308E0021009801FC309900903018
:1033260027009B002200AF01AE01C301C201993103
:103336005F219931973156270800993189219931B2
:103346008B31D92399310B1DAB299F3141279931F7
:1033560022006308503A031DB3299231B6229931EF
:10336600913141219931A3292300B80174302100FC
:10337600A0000030A1000030A2000030A300003001
:10338600A4000030A5009C3123243D008E101211AC
:10339600FB302100A60026083D00900508001E30DF
:1033A6002000E5006508DF0001309B3109239931D3
:1033B6002000DC01A030E5006508DD004030E600B5
:1033C6006608DE0001308831AF202000E70067087C
:1033D6002200AF0008003D001215EF302100A600C4
:1033E60026083D0090058E142300B801B80A7530F2
:1033F6002100A0000030A1000030A2000030A30090
:103406000030A4000030A5009C31232408002100D0
:103416008E162C009301FF3020009B00C0302C003C
:103426009300E6302300E8002C0092009101200072
:1034360091101C08FC3901389C001C1521008E12C5
:103446002C00131708002000DC01DD01581C2F2A70
:103456005A08DC075B08DD3D0130DA35DB0D890BE8
:10346600302A0130D936D80C890B352A5908580428
:10347600031D292A5D08D901D9075C08D801D80798
:103486000800F401F50170184A2A20004E2A720835
:10349600F4077308F53D0130F235F30D890B4F2A19
:1034A6000130F136F00C890B542A71087004031DA3
:1034B600462A7508F101F1077408F001F0072000AB
:1034C600080020005908E001E0075808DF01DF077F
:1034D6000130DC020030DD3BFF305D06031D752A3E
:1034E600FF305C06031908005A08DE005F088600F4
:1034F600600887005E0881000130DF070030E03D8C
:103506006B2A0034003400340034003400340034B4
:103516004034AA34AA34AA342A340034003400349D
:1035260020349934993499341934553455345534F2
:1035360015349234243449341234003400340034BF
:10354600103400302100E1000030E0000130DF00DF
:10355600F430DE0084319124210095129511073054
:103566009504220026082000950021008E130E13D4
:103576000E128E11D83022008E0021000C1222006D
:103586000C1208003D00181CE02A20006D08860079
:1035960087010108803A031DDE2A68088600870134
:1035A6000108843A031DDE2A8C30D8006D08860097
:1035B6008701580881003D001810DF302000D80030
:1035C60058083D00900508002000E501E11FF22A99
:1035D600E009E109E00A0319E10AE501E50A6008E4
:1035E600D8006108D900DA018E30E3006308DB00F9
:1035F6006508E4006408DC009F319F272000580816
:10360600E0005908E1005A08E20008002000E40042
:103616005F1D122BD80164089C3162249B31200067
:10362600DF1C1A2BD801D80A64089C3162242000BA
:103636006408983EE000E1010E30E13D6008E200DA
:103646006108E3005F08E0006208860063088700FF
:103656006008810008008E302000E4006408E50060
:10366600FF3063050319432B0130E336E20CE10C0E
:10367600E00C890B382B0130E4006408E507332B96
:103686006008D8006108D9006208DA006508E4001D
:103696006408DB00DC019F319F2720005808E0000A
:1036A6005908E1005A08E200080020006C08023AB6
:1036B600031D602B9631062608002000EC0123002E
:1036C600B208031D822B08302000DE006E0A860039
:1036D60087015E0881004030DE000030DF006E08A2
:1036E600023E860087015E08C03F5F08C13F8C30FE
:1036F600DE006E08860087015E0881000800230050
:10370600B201080000302000E3000030E200003083
:10371600E1000030E000581C982B5C08E0075D08CB
:10372600E13D5E08E23D5F08E33D0130DC35DD0D3D
:10373600DE0DDF0D890B992B0130DB36DA0CD90C47
:10374600D80C890BA02B5B085A0459045804031D96
:103756008E2B6308DB006208DA006108D900600876
:10376600D80008002000DD01DE01590858040319BD
:10377600E52BDF01DF0AD91BCA2B0130D835D90D5D
:10378600890BC12B0130DC005C08DF07BE2B013042
:10379600DD35DE0D890BCB2B59085B02031DD52BBE
:1037A60058085A02031CDC2B5808DA025908DB3B7E
:1037B6005D140130D936D80C890BDD2B0130DF02C0
:1037C600031DCA2B5E08D901D9075D08D801D807A1
:1037D600080020005808DD005908DE005A08DF00FE
:1037E6005B08E0005C03FF3A203E890AFF2B0310CA
:1037F600E00CDF0CDE0CDD0CFF3E031DFA2B580837
:10380600E1005908E2005A08E3005B08E4005C0A9C
:10381600102CE135E20DE30DE40D890B0C2C61084B
:10382600DD046208DE046308DF046408E00460085F
:10383600DB005F08DA005E08D9005D08D8000800E2
:10384600392C9031002008009831F3200800983177
:10385600F42008009931D22108008731FF2708009B
:103866008731FC270800803102200800210021084A
:10387600003A0319422C7F3A03195C2C612C20086C
:10388600013A03192D2C033A0319302C013A031976
:10389600332C063A0319612C773A0319612C013A45
:1038A6000319242C073A03192A2C013A0319272C49
:1038B600612C2008FF3A0319362C612C08002000E1
:1038C600DD002030D9005908DE005808D900013043
:1038D600D935890B6B2C5D08DA000130DA35FF3EED
:1038E600031D712C5A355907DB000130DB35FF3ECD
:1038F600031D792C5B35DC005C08DE075E0886005C
:1039060087018113D808031D902C5E08D9005D0835
:10391600223E860001308700962C5E08D9005D089D
:10392600683E86008701590881005E088600870187
:1039360001135E08043E8600870101170800200077
:10394600DE01DB1FAD2CDA09DB09DA0A0319DB0A13
:10395600DE01DE0AD91FB42CD809D909D80A031901
:10396600D90A590858040319DB2CDD01DD0AD91BD5
:10397600C62C0130D835D90D890BBD2C0130DC00A1
:103986005C08DD07BA2C59085B02031DCC2C5808CD
:103996005A02031CD22C5808DA025908DB3B0130C4
:1039A600D936D80C890BD32C0130DD02031DC62C69
:1039B6005E080319E32CDA09DB09DA0A0319DB0AC4
:1039C6005B08D901D9075A08D801D8070800220090
:1039D600AC01AD0120006C08023A031D0D2D083024
:1039E600DB006E0A860087015B0881004830DB0039
:1039F6000030DC006E08023E860087015B08C03F8F
:103A06005C08C13FC830DB006E08860087015B0892
:103A16008100080022003E0820004702031D172DE2
:103A260022003D08200046020318222D47082200E6
:103A3600BE01BE07200046082200BD01BD07933126
:103A4600C3239C3148302000DB000030DC006808CE
:103A5600023E860087015B08C03F5C08C13FC83054
:103A6600DB006808860087015B08810008002200E9
:103A7600B9012000EB012200AC01AD012300B20127
:103A86002000EC017F302100AD0020006808860090
:103A9600870121002D0881050430AD002D08200086
:103AA600E8067F302100AD00200068088600870107
:103AB60021002D0881050430AD002D082000E80600
:103AC6007F302100AD0020006E08860087012100AE
:103AD6002D0881052200BC01BD01BE012300A20103
:103AE600A301A4019E31E3269D3103302100A000ED
:103AF6000030A1000030A2000030A3000030A40076
:103B06000030A5009C3123249D319031C820080047
:103B16002000C8010030C900C32D2200BC172000B8
:103B2600481422002908013A031DCF2D2000C8148D
:103B3600CF2D2200BC17CF2D2200BC172000C41B9E
:103B4600AB2D44080F39223E860001308700B02D88
:103B560044080F39683E860087010108D8005808D6
:103B6600D900590886008701811FCF2D5908860084
:103B76008701011DCF2D0130D8005808C800CF2D70
:103B860040081F39003A0319902D013A03199C2D5C
:103B9600033A03199F2DCF2D2200BC1F0800483081
:103BA600BA000030BB003C1402302000D800580890
:103BB6002200BD0008002000DE01D91FE92DD8092A
:103BC600D909D80A0319D90ADE01DE0ADB1FF42D4A
:103BD600DA09DB09DA0A0319DB0A0130DC005C08C2
:103BE600DE06DF01E001590858040319232EDD0122
:103BF600DD0AD91B082E0130D835D90D890BFF2DCA
:103C06000130DC005C08DD07FC2D0130DF35E00DFE
:103C1600890B092E59085B02031D132E58085A02F8
:103C2600031C1A2E5808DA025908DB3B5F140130D0
:103C3600D936D80C890B1B2E0130DD02031D082E48
:103C46005E0803192B2EDF09E009DF0A0319E00AD3
:103C56006008D901D9075F08D801D80708000030E5
:103C66002100AB000030AA000030A9000030A800F7
:103C7600230822042104200403197E2EAC01AC0A79
:103C8600A31B532E0130A035A10DA20DA30D890B48
:103C9600462E01302000E40064082100AC07432EC4
:103CA6000130A835A90DAA0DAB0D890B542E23089A
:103CB6002702031D682E22082602031D682E2108EE
:103CC6002502031D682E20082402031C732E2008DB
:103CD600A4022108A53B2208A63B2308A73B2814DB
:103CE6000130A336A20CA10CA00C890B742E013056
:103CF600AC02031D532E2B08A3002A08A200290894
:103D0600A1002808A00008002300B7010430220003
:103D16002A020318BE2E2000911EA32E2300190886
:103D2600FC0022002A08023EDA3E860001308700A7
:103D36007C0881000130FC007C08AA072300B7013B
:103D46000130FC007C082300B70722303702031C31
:103D5600B22E0130FC007C082200EF07DB2E9D1CF2
:103D6600892E22006308573A031DDB2E0130FC0022
:103D76007C08EA07DB2E6308573A031DDB2E3D302D
:103D8600FC007C082300DA0022006708FC007C089F
:103D96002300DB00DA30F6000130F700DB30F800F4
:103DA6000130F9000530FC007C08FA009431E0246B
:103DB60023009D139D172200AA01270096010800E3
:103DC6002000400E890C0339003A031D0800352FE8
:103DD6002200BC1708302100AC002C08EE000800B9
:103DE60092313722080094315124080040302200D5
:103DF600BA000130BB003C14BD01BD0ABC17080067
:103E06009D318B2508008E31E526080020004408E8
:103E1600413E2200BA000130BB003C14BD01BD0A80
:103E2600BC1708002200BC17200042082100AC0085
:103E360020004408413E86000130870021002C08FE
:103E46008100080002302100A0000030A1000030EF
:103E5600A2000030A3000030A4000030A5009C3171
:103E6600232408002000410884000D3004020318B2
:103E7600080098310435003E82000800220026081A
:103E86002100E5006508200095070B112200630854
:103E9600573A031D6C2F0830633E860001308700B9
:103EA6000130810741310318810A7F31403F6D0699
:103EB600031D5F2F413F6E06031D6C2F6608031915
:103EC600662F5030672F52302100E500650822002A
:103ED600E30001302100E50065082300B607031D55
:103EE600080022008C1221001C08E500650822004B
:103EF600E80021009D140F302000D8000030D900C2
:103F060001302100E50065082300B90739082100C2
:103F1600E600E70166082000DA00210067082000B5
:103F2600DB009C31A2249F31200059085804031D50
:103F360008008631A726080020005B080319A82F71
:103F46005A0859045804031DB92F0030D800003010
:103F5600D9000030DA0008000130DD005D08DB071B
:103F66000130DA36D90CD80C890BB42FFE305A053D
:103F76000319D22FAF2F0130DD005D08DB070130BA
:103F8600D807003003180130D90700300318013074
:103F9600DA070130DA36D90CD80C890BCD2FFF3071
:103FA6005A050319DF2FBE2F0130DB020130D83549
:103FB600D90DDA0D890BDA2FD91FD72F5B18E92F08
:103FC600FF30D8057F30D905FF30DA050310DB0C4A
:103FD6005B08DD00DE01DF011030DD35DE0DDF0DB3
:103FE600890BF02F5D08D8045E08D9045F08DA044F
:0A3FF6005C0803190800DA17080040
:020000040001F9
:04000E0084CFCFDFED
:00000001FF
